{
  "_format": "hh-sol-artifact-1",
  "contractName": "SampleToken",
  "sourceName": "contracts/SampleToken.sol",
  "abi": [
    {
      "inputs": [
        {
          "internalType": "string",
          "name": "name",
          "type": "string"
        },
        {
          "internalType": "string",
          "name": "symbol",
          "type": "string"
        },
        {
          "internalType": "uint256",
          "name": "cap",
          "type": "uint256"
        },
        {
          "internalType": "uint256",
          "name": "initialSupply",
          "type": "uint256"
        }
      ],
      "stateMutability": "nonpayable",
      "type": "constructor"
    },
    {
      "inputs": [],
      "name": "InvalidShortString",
      "type": "error"
    },
    {
      "inputs": [
        {
          "internalType": "string",
          "name": "str",
          "type": "string"
        }
      ],
      "name": "StringTooLong",
      "type": "error"
    },
    {
      "anonymous": false,
      "inputs": [
        {
          "indexed": true,
          "internalType": "address",
          "name": "owner",
          "type": "address"
        },
        {
          "indexed": true,
          "internalType": "address",
          "name": "spender",
          "type": "address"
        },
        {
          "indexed": false,
          "internalType": "uint256",
          "name": "value",
          "type": "uint256"
        }
      ],
      "name": "Approval",
      "type": "event"
    },
    {
      "anonymous": false,
      "inputs": [
        {
          "indexed": true,
          "internalType": "address",
          "name": "delegator",
          "type": "address"
        },
        {
          "indexed": true,
          "internalType": "address",
          "name": "fromDelegate",
          "type": "address"
        },
        {
          "indexed": true,
          "internalType": "address",
          "name": "toDelegate",
          "type": "address"
        }
      ],
      "name": "DelegateChanged",
      "type": "event"
    },
    {
      "anonymous": false,
      "inputs": [
        {
          "indexed": true,
          "internalType": "address",
          "name": "delegate",
          "type": "address"
        },
        {
          "indexed": false,
          "internalType": "uint256",
          "name": "previousBalance",
          "type": "uint256"
        },
        {
          "indexed": false,
          "internalType": "uint256",
          "name": "newBalance",
          "type": "uint256"
        }
      ],
      "name": "DelegateVotesChanged",
      "type": "event"
    },
    {
      "anonymous": false,
      "inputs": [],
      "name": "EIP712DomainChanged",
      "type": "event"
    },
    {
      "anonymous": false,
      "inputs": [
        {
          "indexed": false,
          "internalType": "address",
          "name": "account",
          "type": "address"
        }
      ],
      "name": "Paused",
      "type": "event"
    },
    {
      "anonymous": false,
      "inputs": [
        {
          "indexed": true,
          "internalType": "bytes32",
          "name": "role",
          "type": "bytes32"
        },
        {
          "indexed": true,
          "internalType": "bytes32",
          "name": "previousAdminRole",
          "type": "bytes32"
        },
        {
          "indexed": true,
          "internalType": "bytes32",
          "name": "newAdminRole",
          "type": "bytes32"
        }
      ],
      "name": "RoleAdminChanged",
      "type": "event"
    },
    {
      "anonymous": false,
      "inputs": [
        {
          "indexed": true,
          "internalType": "bytes32",
          "name": "role",
          "type": "bytes32"
        },
        {
          "indexed": true,
          "internalType": "address",
          "name": "account",
          "type": "address"
        },
        {
          "indexed": true,
          "internalType": "address",
          "name": "sender",
          "type": "address"
        }
      ],
      "name": "RoleGranted",
      "type": "event"
    },
    {
      "anonymous": false,
      "inputs": [
        {
          "indexed": true,
          "internalType": "bytes32",
          "name": "role",
          "type": "bytes32"
        },
        {
          "indexed": true,
          "internalType": "address",
          "name": "account",
          "type": "address"
        },
        {
          "indexed": true,
          "internalType": "address",
          "name": "sender",
          "type": "address"
        }
      ],
      "name": "RoleRevoked",
      "type": "event"
    },
    {
      "anonymous": false,
      "inputs": [
        {
          "indexed": true,
          "internalType": "address",
          "name": "account",
          "type": "address"
        }
      ],
      "name": "TokenPaused",
      "type": "event"
    },
    {
      "anonymous": false,
      "inputs": [
        {
          "indexed": true,
          "internalType": "address",
          "name": "account",
          "type": "address"
        }
      ],
      "name": "TokenUnpaused",
      "type": "event"
    },
    {
      "anonymous": false,
      "inputs": [
        {
          "indexed": true,
          "internalType": "address",
          "name": "from",
          "type": "address"
        },
        {
          "indexed": false,
          "internalType": "uint256",
          "name": "amount",
          "type": "uint256"
        }
      ],
      "name": "TokensBurned",
      "type": "event"
    },
    {
      "anonymous": false,
      "inputs": [
        {
          "indexed": true,
          "internalType": "address",
          "name": "to",
          "type": "address"
        },
        {
          "indexed": false,
          "internalType": "uint256",
          "name": "amount",
          "type": "uint256"
        }
      ],
      "name": "TokensMinted",
      "type": "event"
    },
    {
      "anonymous": false,
      "inputs": [
        {
          "indexed": true,
          "internalType": "address",
          "name": "from",
          "type": "address"
        },
        {
          "indexed": true,
          "internalType": "address",
          "name": "to",
          "type": "address"
        },
        {
          "indexed": false,
          "internalType": "uint256",
          "name": "value",
          "type": "uint256"
        }
      ],
      "name": "Transfer",
      "type": "event"
    },
    {
      "anonymous": false,
      "inputs": [
        {
          "indexed": false,
          "internalType": "address",
          "name": "account",
          "type": "address"
        }
      ],
      "name": "Unpaused",
      "type": "event"
    },
    {
      "inputs": [],
      "name": "CLOCK_MODE",
      "outputs": [
        {
          "internalType": "string",
          "name": "",
          "type": "string"
        }
      ],
      "stateMutability": "view",
      "type": "function"
    },
    {
      "inputs": [],
      "name": "DEFAULT_ADMIN_ROLE",
      "outputs": [
        {
          "internalType": "bytes32",
          "name": "",
          "type": "bytes32"
        }
      ],
      "stateMutability": "view",
      "type": "function"
    },
    {
      "inputs": [],
      "name": "DOMAIN_SEPARATOR",
      "outputs": [
        {
          "internalType": "bytes32",
          "name": "",
          "type": "bytes32"
        }
      ],
      "stateMutability": "view",
      "type": "function"
    },
    {
      "inputs": [],
      "name": "MINTER_ROLE",
      "outputs": [
        {
          "internalType": "bytes32",
          "name": "",
          "type": "bytes32"
        }
      ],
      "stateMutability": "view",
      "type": "function"
    },
    {
      "inputs": [],
      "name": "PAUSER_ROLE",
      "outputs": [
        {
          "internalType": "bytes32",
          "name": "",
          "type": "bytes32"
        }
      ],
      "stateMutability": "view",
      "type": "function"
    },
    {
      "inputs": [
        {
          "internalType": "address",
          "name": "owner",
          "type": "address"
        },
        {
          "internalType": "address",
          "name": "spender",
          "type": "address"
        }
      ],
      "name": "allowance",
      "outputs": [
        {
          "internalType": "uint256",
          "name": "",
          "type": "uint256"
        }
      ],
      "stateMutability": "view",
      "type": "function"
    },
    {
      "inputs": [
        {
          "internalType": "address",
          "name": "spender",
          "type": "address"
        },
        {
          "internalType": "uint256",
          "name": "amount",
          "type": "uint256"
        }
      ],
      "name": "approve",
      "outputs": [
        {
          "internalType": "bool",
          "name": "",
          "type": "bool"
        }
      ],
      "stateMutability": "nonpayable",
      "type": "function"
    },
    {
      "inputs": [
        {
          "internalType": "address",
          "name": "account",
          "type": "address"
        }
      ],
      "name": "balanceOf",
      "outputs": [
        {
          "internalType": "uint256",
          "name": "",
          "type": "uint256"
        }
      ],
      "stateMutability": "view",
      "type": "function"
    },
    {
      "inputs": [
        {
          "internalType": "uint256",
          "name": "amount",
          "type": "uint256"
        }
      ],
      "name": "burn",
      "outputs": [],
      "stateMutability": "nonpayable",
      "type": "function"
    },
    {
      "inputs": [
        {
          "internalType": "address",
          "name": "account",
          "type": "address"
        },
        {
          "internalType": "uint256",
          "name": "amount",
          "type": "uint256"
        }
      ],
      "name": "burnFrom",
      "outputs": [],
      "stateMutability": "nonpayable",
      "type": "function"
    },
    {
      "inputs": [],
      "name": "cap",
      "outputs": [
        {
          "internalType": "uint256",
          "name": "",
          "type": "uint256"
        }
      ],
      "stateMutability": "view",
      "type": "function"
    },
    {
      "inputs": [
        {
          "internalType": "address",
          "name": "account",
          "type": "address"
        },
        {
          "internalType": "uint32",
          "name": "pos",
          "type": "uint32"
        }
      ],
      "name": "checkpoints",
      "outputs": [
        {
          "components": [
            {
              "internalType": "uint32",
              "name": "fromBlock",
              "type": "uint32"
            },
            {
              "internalType": "uint224",
              "name": "votes",
              "type": "uint224"
            }
          ],
          "internalType": "struct ERC20Votes.Checkpoint",
          "name": "",
          "type": "tuple"
        }
      ],
      "stateMutability": "view",
      "type": "function"
    },
    {
      "inputs": [],
      "name": "clock",
      "outputs": [
        {
          "internalType": "uint48",
          "name": "",
          "type": "uint48"
        }
      ],
      "stateMutability": "view",
      "type": "function"
    },
    {
      "inputs": [],
      "name": "decimals",
      "outputs": [
        {
          "internalType": "uint8",
          "name": "",
          "type": "uint8"
        }
      ],
      "stateMutability": "view",
      "type": "function"
    },
    {
      "inputs": [
        {
          "internalType": "address",
          "name": "spender",
          "type": "address"
        },
        {
          "internalType": "uint256",
          "name": "subtractedValue",
          "type": "uint256"
        }
      ],
      "name": "decreaseAllowance",
      "outputs": [
        {
          "internalType": "bool",
          "name": "",
          "type": "bool"
        }
      ],
      "stateMutability": "nonpayable",
      "type": "function"
    },
    {
      "inputs": [
        {
          "internalType": "address",
          "name": "delegatee",
          "type": "address"
        }
      ],
      "name": "delegate",
      "outputs": [],
      "stateMutability": "nonpayable",
      "type": "function"
    },
    {
      "inputs": [
        {
          "internalType": "address",
          "name": "delegatee",
          "type": "address"
        },
        {
          "internalType": "uint256",
          "name": "nonce",
          "type": "uint256"
        },
        {
          "internalType": "uint256",
          "name": "expiry",
          "type": "uint256"
        },
        {
          "internalType": "uint8",
          "name": "v",
          "type": "uint8"
        },
        {
          "internalType": "bytes32",
          "name": "r",
          "type": "bytes32"
        },
        {
          "internalType": "bytes32",
          "name": "s",
          "type": "bytes32"
        }
      ],
      "name": "delegateBySig",
      "outputs": [],
      "stateMutability": "nonpayable",
      "type": "function"
    },
    {
      "inputs": [
        {
          "internalType": "address",
          "name": "account",
          "type": "address"
        }
      ],
      "name": "delegates",
      "outputs": [
        {
          "internalType": "address",
          "name": "",
          "type": "address"
        }
      ],
      "stateMutability": "view",
      "type": "function"
    },
    {
      "inputs": [],
      "name": "eip712Domain",
      "outputs": [
        {
          "internalType": "bytes1",
          "name": "fields",
          "type": "bytes1"
        },
        {
          "internalType": "string",
          "name": "name",
          "type": "string"
        },
        {
          "internalType": "string",
          "name": "version",
          "type": "string"
        },
        {
          "internalType": "uint256",
          "name": "chainId",
          "type": "uint256"
        },
        {
          "internalType": "address",
          "name": "verifyingContract",
          "type": "address"
        },
        {
          "internalType": "bytes32",
          "name": "salt",
          "type": "bytes32"
        },
        {
          "internalType": "uint256[]",
          "name": "extensions",
          "type": "uint256[]"
        }
      ],
      "stateMutability": "view",
      "type": "function"
    },
    {
      "inputs": [
        {
          "internalType": "uint256",
          "name": "timepoint",
          "type": "uint256"
        }
      ],
      "name": "getPastTotalSupply",
      "outputs": [
        {
          "internalType": "uint256",
          "name": "",
          "type": "uint256"
        }
      ],
      "stateMutability": "view",
      "type": "function"
    },
    {
      "inputs": [
        {
          "internalType": "address",
          "name": "account",
          "type": "address"
        },
        {
          "internalType": "uint256",
          "name": "timepoint",
          "type": "uint256"
        }
      ],
      "name": "getPastVotes",
      "outputs": [
        {
          "internalType": "uint256",
          "name": "",
          "type": "uint256"
        }
      ],
      "stateMutability": "view",
      "type": "function"
    },
    {
      "inputs": [
        {
          "internalType": "bytes32",
          "name": "role",
          "type": "bytes32"
        }
      ],
      "name": "getRoleAdmin",
      "outputs": [
        {
          "internalType": "bytes32",
          "name": "",
          "type": "bytes32"
        }
      ],
      "stateMutability": "view",
      "type": "function"
    },
    {
      "inputs": [
        {
          "internalType": "address",
          "name": "account",
          "type": "address"
        }
      ],
      "name": "getVotes",
      "outputs": [
        {
          "internalType": "uint256",
          "name": "",
          "type": "uint256"
        }
      ],
      "stateMutability": "view",
      "type": "function"
    },
    {
      "inputs": [
        {
          "internalType": "bytes32",
          "name": "role",
          "type": "bytes32"
        },
        {
          "internalType": "address",
          "name": "account",
          "type": "address"
        }
      ],
      "name": "grantRole",
      "outputs": [],
      "stateMutability": "nonpayable",
      "type": "function"
    },
    {
      "inputs": [
        {
          "internalType": "bytes32",
          "name": "role",
          "type": "bytes32"
        },
        {
          "internalType": "address",
          "name": "account",
          "type": "address"
        }
      ],
      "name": "hasRole",
      "outputs": [
        {
          "internalType": "bool",
          "name": "",
          "type": "bool"
        }
      ],
      "stateMutability": "view",
      "type": "function"
    },
    {
      "inputs": [
        {
          "internalType": "address",
          "name": "spender",
          "type": "address"
        },
        {
          "internalType": "uint256",
          "name": "addedValue",
          "type": "uint256"
        }
      ],
      "name": "increaseAllowance",
      "outputs": [
        {
          "internalType": "bool",
          "name": "",
          "type": "bool"
        }
      ],
      "stateMutability": "nonpayable",
      "type": "function"
    },
    {
      "inputs": [
        {
          "internalType": "address",
          "name": "to",
          "type": "address"
        },
        {
          "internalType": "uint256",
          "name": "amount",
          "type": "uint256"
        }
      ],
      "name": "mint",
      "outputs": [],
      "stateMutability": "nonpayable",
      "type": "function"
    },
    {
      "inputs": [],
      "name": "name",
      "outputs": [
        {
          "internalType": "string",
          "name": "",
          "type": "string"
        }
      ],
      "stateMutability": "view",
      "type": "function"
    },
    {
      "inputs": [
        {
          "internalType": "address",
          "name": "owner",
          "type": "address"
        }
      ],
      "name": "nonces",
      "outputs": [
        {
          "internalType": "uint256",
          "name": "",
          "type": "uint256"
        }
      ],
      "stateMutability": "view",
      "type": "function"
    },
    {
      "inputs": [
        {
          "internalType": "address",
          "name": "account",
          "type": "address"
        }
      ],
      "name": "numCheckpoints",
      "outputs": [
        {
          "internalType": "uint32",
          "name": "",
          "type": "uint32"
        }
      ],
      "stateMutability": "view",
      "type": "function"
    },
    {
      "inputs": [],
      "name": "pause",
      "outputs": [],
      "stateMutability": "nonpayable",
      "type": "function"
    },
    {
      "inputs": [],
      "name": "paused",
      "outputs": [
        {
          "internalType": "bool",
          "name": "",
          "type": "bool"
        }
      ],
      "stateMutability": "view",
      "type": "function"
    },
    {
      "inputs": [
        {
          "internalType": "address",
          "name": "owner",
          "type": "address"
        },
        {
          "internalType": "address",
          "name": "spender",
          "type": "address"
        },
        {
          "internalType": "uint256",
          "name": "value",
          "type": "uint256"
        },
        {
          "internalType": "uint256",
          "name": "deadline",
          "type": "uint256"
        },
        {
          "internalType": "uint8",
          "name": "v",
          "type": "uint8"
        },
        {
          "internalType": "bytes32",
          "name": "r",
          "type": "bytes32"
        },
        {
          "internalType": "bytes32",
          "name": "s",
          "type": "bytes32"
        }
      ],
      "name": "permit",
      "outputs": [],
      "stateMutability": "nonpayable",
      "type": "function"
    },
    {
      "inputs": [
        {
          "internalType": "bytes32",
          "name": "role",
          "type": "bytes32"
        },
        {
          "internalType": "address",
          "name": "account",
          "type": "address"
        }
      ],
      "name": "renounceRole",
      "outputs": [],
      "stateMutability": "nonpayable",
      "type": "function"
    },
    {
      "inputs": [
        {
          "internalType": "bytes32",
          "name": "role",
          "type": "bytes32"
        },
        {
          "internalType": "address",
          "name": "account",
          "type": "address"
        }
      ],
      "name": "revokeRole",
      "outputs": [],
      "stateMutability": "nonpayable",
      "type": "function"
    },
    {
      "inputs": [],
      "name": "selfDelegate",
      "outputs": [],
      "stateMutability": "nonpayable",
      "type": "function"
    },
    {
      "inputs": [
        {
          "internalType": "bytes4",
          "name": "interfaceId",
          "type": "bytes4"
        }
      ],
      "name": "supportsInterface",
      "outputs": [
        {
          "internalType": "bool",
          "name": "",
          "type": "bool"
        }
      ],
      "stateMutability": "view",
      "type": "function"
    },
    {
      "inputs": [],
      "name": "symbol",
      "outputs": [
        {
          "internalType": "string",
          "name": "",
          "type": "string"
        }
      ],
      "stateMutability": "view",
      "type": "function"
    },
    {
      "inputs": [],
      "name": "totalSupply",
      "outputs": [
        {
          "internalType": "uint256",
          "name": "",
          "type": "uint256"
        }
      ],
      "stateMutability": "view",
      "type": "function"
    },
    {
      "inputs": [
        {
          "internalType": "address",
          "name": "to",
          "type": "address"
        },
        {
          "internalType": "uint256",
          "name": "amount",
          "type": "uint256"
        }
      ],
      "name": "transfer",
      "outputs": [
        {
          "internalType": "bool",
          "name": "",
          "type": "bool"
        }
      ],
      "stateMutability": "nonpayable",
      "type": "function"
    },
    {
      "inputs": [
        {
          "internalType": "address",
          "name": "from",
          "type": "address"
        },
        {
          "internalType": "address",
          "name": "to",
          "type": "address"
        },
        {
          "internalType": "uint256",
          "name": "amount",
          "type": "uint256"
        }
      ],
      "name": "transferFrom",
      "outputs": [
        {
          "internalType": "bool",
          "name": "",
          "type": "bool"
        }
      ],
      "stateMutability": "nonpayable",
      "type": "function"
    },
    {
      "inputs": [],
      "name": "unpause",
      "outputs": [],
      "stateMutability": "nonpayable",
      "type": "function"
    }
  ],
  "bytecode": "0x6101806040523480156200001257600080fd5b5060405162003c7d38038062003c7d833981016040819052620000359162000b64565b6040805180820190915260018152603160f81b602082015284908190848287600362000062838262000c6c565b50600462000071828262000c6c565b50505060008111620000ca5760405162461bcd60e51b815260206004820152601560248201527f45524332304361707065643a206361702069732030000000000000000000000060448201526064015b60405180910390fd5b6080526005805460ff19169055620000e482600662000291565b61014052620000f581600762000291565b61016052815160208084019190912061010052815190820120610120524660c052620001856101005161012051604080517f8b73c3c69bb8fe3d512ecc4cf759cc79239f7b179b0ffacaa9a75d522b39400f60208201529081019290925260608201524660808201523060a082015260009060c00160405160208183030381529060405280519060200120905090565b60a05250503060e052506200019c600033620002ca565b620001c87f9f2df0fed2c77648de5860a4cc508cd0818c85b8b8a1ab4ceeef8d981c8956a633620002ca565b620001f47f65d7a28e3265b37a6474929f336521b332c1681b933f6cb9f3376673440d862a33620002ca565b81811115620002465760405162461bcd60e51b815260206004820152601a60248201527f496e697469616c20737570706c792065786365656473206361700000000000006044820152606401620000c1565b6200025233826200036f565b60405181815233907f3f2c9d57c068687834f0de942a9babb9e5acab57d516d3480a3c16ee165a42739060200160405180910390a25050505062000dd4565b6000602083511015620002b157620002a9836200037b565b9050620002c4565b81620002be848262000c6c565b5060ff90505b92915050565b6000828152600d602090815260408083206001600160a01b038516845290915290205460ff166200036b576000828152600d602090815260408083206001600160a01b03851684529091529020805460ff191660011790556200032a3390565b6001600160a01b0316816001600160a01b0316837f2f8788117e7eff1d82e926ec794901d17c78024a50270940304540a733656f0d60405160405180910390a45b5050565b6200036b8282620003be565b600080829050601f81511115620003a9578260405163305a27a960e01b8152600401620000c1919062000d38565b8051620003b68262000d6d565b179392505050565b620003ca828262000466565b6001600160e01b03620003de620004dc8216565b1115620004475760405162461bcd60e51b815260206004820152603060248201527f4552433230566f7465733a20746f74616c20737570706c79207269736b73206f60448201526f766572666c6f77696e6720766f74657360801b6064820152608401620000c1565b62000460600c6200112c620004e260201b1783620004f7565b50505050565b608051816200047460025490565b62000480919062000da8565b1115620004d05760405162461bcd60e51b815260206004820152601960248201527f45524332304361707065643a20636170206578636565646564000000000000006044820152606401620000c1565b6200036b82826200067f565b60025490565b6000620004f0828462000da8565b9392505050565b82546000908190818115620005465760008781526020902082016000190160408051808201909152905463ffffffff8116825264010000000090046001600160e01b031660208201526200055b565b60408051808201909152600080825260208201525b905080602001516001600160e01b031693506200057984868860201c565b9250600082118015620005a65750620005916200075a565b65ffffffffffff16816000015163ffffffff16145b15620005ef57620005b7836200076c565b60008881526020902083016000190180546001600160e01b03929092166401000000000263ffffffff90921691909117905562000675565b8660405180604001604052806200061d6200060f6200075a60201b60201c565b65ffffffffffff16620007db565b63ffffffff16815260200162000633866200076c565b6001600160e01b0390811690915282546001810184556000938452602093849020835194909301519091166401000000000263ffffffff909316929092179101555b5050935093915050565b6001600160a01b038216620006d75760405162461bcd60e51b815260206004820152601f60248201527f45524332303a206d696e7420746f20746865207a65726f2061646472657373006044820152606401620000c1565b620006e56000838362000842565b8060026000828254620006f9919062000da8565b90915550506001600160a01b038216600081815260208181526040808320805486019055518481527fddf252ad1be2c89b69c2b068fc378daa952ba7f163c4a11628f55a4df523b3ef910160405180910390a36200036b6000838362000854565b6000620007674362000861565b905090565b60006001600160e01b03821115620007d75760405162461bcd60e51b815260206004820152602760248201527f53616665436173743a2076616c756520646f65736e27742066697420696e20326044820152663234206269747360c81b6064820152608401620000c1565b5090565b600063ffffffff821115620007d75760405162461bcd60e51b815260206004820152602660248201527f53616665436173743a2076616c756520646f65736e27742066697420696e203360448201526532206269747360d01b6064820152608401620000c1565b6200084f838383620008ca565b505050565b6200084f83838362000932565b600065ffffffffffff821115620007d75760405162461bcd60e51b815260206004820152602660248201527f53616665436173743a2076616c756520646f65736e27742066697420696e203460448201526538206269747360d01b6064820152608401620000c1565b60055460ff16156200084f5760405162461bcd60e51b815260206004820152602a60248201527f45524332305061757361626c653a20746f6b656e207472616e736665722077686044820152691a5b19481c185d5cd95960b21b6064820152608401620000c1565b6001600160a01b038381166000908152600a60205260408082205485841683529120546200084f92918216911683818314801590620009715750600081115b156200084f576001600160a01b03831615620009fe576001600160a01b0383166000908152600b6020908152604082208291620009bb919062000a89901b620011381785620004f7565b91509150846001600160a01b031660008051602062003c5d8339815191528383604051620009f3929190918252602082015260400190565b60405180910390a250505b6001600160a01b038216156200084f576001600160a01b0382166000908152600b602090815260408220829162000a429190620004e2901b6200112c1785620004f7565b91509150836001600160a01b031660008051602062003c5d833981519152838360405162000a7a929190918252602082015260400190565b60405180910390a25050505050565b6000620004f0828462000dbe565b634e487b7160e01b600052604160045260246000fd5b60005b8381101562000aca57818101518382015260200162000ab0565b50506000910152565b600082601f83011262000ae557600080fd5b81516001600160401b038082111562000b025762000b0262000a97565b604051601f8301601f19908116603f0116810190828211818310171562000b2d5762000b2d62000a97565b8160405283815286602085880101111562000b4757600080fd5b62000b5a84602083016020890162000aad565b9695505050505050565b6000806000806080858703121562000b7b57600080fd5b84516001600160401b038082111562000b9357600080fd5b62000ba18883890162000ad3565b9550602087015191508082111562000bb857600080fd5b5062000bc78782880162000ad3565b604087015160609097015195989097509350505050565b600181811c9082168062000bf357607f821691505b60208210810362000c1457634e487b7160e01b600052602260045260246000fd5b50919050565b601f8211156200084f57600081815260208120601f850160051c8101602086101562000c435750805b601f850160051c820191505b8181101562000c645782815560010162000c4f565b505050505050565b81516001600160401b0381111562000c885762000c8862000a97565b62000ca08162000c99845462000bde565b8462000c1a565b602080601f83116001811462000cd8576000841562000cbf5750858301515b600019600386901b1c1916600185901b17855562000c64565b600085815260208120601f198616915b8281101562000d095788860151825594840194600190910190840162000ce8565b508582101562000d285787850151600019600388901b60f8161c191681555b5050505050600190811b01905550565b602081526000825180602084015262000d5981604085016020870162000aad565b601f01601f19169190910160400192915050565b8051602080830151919081101562000c145760001960209190910360031b1b16919050565b634e487b7160e01b600052601160045260246000fd5b80820180821115620002c457620002c462000d92565b81810381811115620002c457620002c462000d92565b60805160a05160c05160e05161010051610120516101405161016051612e1c62000e416000396000610bb701526000610b8c01526000611601015260006115d9015260006115340152600061155e0152600061158801526000818161032101526124560152612e1c6000f3fe608060405234801561001057600080fd5b506004361061025e5760003560e01c80636fcfff45116101465780639ab24eb0116100c3578063d505accf11610087578063d505accf14610561578063d539139314610574578063d547741f1461059b578063dd62ed3e146105ae578063e63ab1e9146105c1578063f1127ed8146105e857600080fd5b80639ab24eb01461050d578063a217fddf14610520578063a457c2d714610528578063a9059cbb1461053b578063c3cda5201461054e57600080fd5b806384b0196e1161010a57806384b0196e146104a55780638e539e8c146104c057806391d14854146104d357806391ddadf4146104e657806395d89b411461050557600080fd5b80636fcfff451461042657806370a082311461044e57806379cc6790146104775780637ecebe001461048a5780638456cb591461049d57600080fd5b806336568abe116101df57806340c10f19116101a357806340c10f191461039657806342966c68146103a95780634bf5d7e9146103bc578063587cde1e146103c45780635c19a95c146104085780635c975abb1461041b57600080fd5b806336568abe1461034d57806339509351146103605780633a46b1a8146103735780633f0a52ff146103865780633f4ba83a1461038e57600080fd5b8063248a9ca311610226578063248a9ca3146102d85780632f2ff15d146102fb578063313ce56714610310578063355274ea1461031f5780633644e5151461034557600080fd5b806301ffc9a71461026357806306fdde031461028b578063095ea7b3146102a057806318160ddd146102b357806323b872dd146102c5575b600080fd5b610276610271366004612917565b610625565b60405190151581526020015b60405180910390f35b61029361065c565b6040516102829190612991565b6102766102ae3660046129c0565b6106ee565b6002545b604051908152602001610282565b6102766102d33660046129ea565b610706565b6102b76102e6366004612a26565b6000908152600d602052604090206001015490565b61030e610309366004612a3f565b61072a565b005b60405160128152602001610282565b7f00000000000000000000000000000000000000000000000000000000000000006102b7565b6102b7610754565b61030e61035b366004612a3f565b610763565b61027661036e3660046129c0565b6107c3565b6102b76103813660046129c0565b6107e5565b61030e61086a565b61030e610875565b61030e6103a43660046129c0565b6108d5565b61030e6103b7366004612a26565b6109a7565b6102936109e8565b6103f06103d2366004612a6b565b6001600160a01b039081166000908152600a60205260409020541690565b6040516001600160a01b039091168152602001610282565b61030e610416366004612a6b565b610a80565b60055460ff16610276565b610439610434366004612a6b565b610a8d565b60405163ffffffff9091168152602001610282565b6102b761045c366004612a6b565b6001600160a01b031660009081526020819052604090205490565b61030e6104853660046129c0565b610aaf565b6102b7610498366004612a6b565b610b00565b61030e610b1e565b6104ad610b7e565b6040516102829796959493929190612a86565b6102b76104ce366004612a26565b610c07565b6102766104e1366004612a3f565b610c6e565b6104ee610c99565b60405165ffffffffffff9091168152602001610282565b610293610ca4565b6102b761051b366004612a6b565b610cb3565b6102b7600081565b6102766105363660046129c0565b610d35565b6102766105493660046129c0565b610db0565b61030e61055c366004612b2d565b610dbe565b61030e61056f366004612b85565b610ef4565b6102b77f9f2df0fed2c77648de5860a4cc508cd0818c85b8b8a1ab4ceeef8d981c8956a681565b61030e6105a9366004612a3f565b611058565b6102b76105bc366004612bef565b61107d565b6102b77f65d7a28e3265b37a6474929f336521b332c1681b933f6cb9f3376673440d862a81565b6105fb6105f6366004612c19565b6110a8565b60408051825163ffffffff1681526020928301516001600160e01b03169281019290925201610282565b60006001600160e01b03198216637965db0b60e01b148061065657506301ffc9a760e01b6001600160e01b03198316145b92915050565b60606003805461066b90612c59565b80601f016020809104026020016040519081016040528092919081815260200182805461069790612c59565b80156106e45780601f106106b9576101008083540402835291602001916106e4565b820191906000526020600020905b8154815290600101906020018083116106c757829003601f168201915b5050505050905090565b6000336106fc818585611144565b5060019392505050565b600033610714858285611268565b61071f8585856112e2565b506001949350505050565b6000828152600d602052604090206001015461074581611497565b61074f83836114a1565b505050565b600061075e611527565b905090565b816107b55760405162461bcd60e51b815260206004820152601a60248201527f43616e6e6f742072656e6f756e63652061646d696e20726f6c6500000000000060448201526064015b60405180910390fd5b6107bf8282611652565b5050565b6000336106fc8185856107d6838361107d565b6107e09190612ca3565b611144565b60006107ef610c99565b65ffffffffffff1682106108415760405162461bcd60e51b815260206004820152601960248201527804552433230566f7465733a20667574757265206c6f6f6b757603c1b60448201526064016107ac565b6001600160a01b0383166000908152600b6020526040902061086390836116cc565b9392505050565b61087333610a80565b565b7f65d7a28e3265b37a6474929f336521b332c1681b933f6cb9f3376673440d862a61089f81611497565b6108a76117b5565b60405133907ff38578ed892ce2ce655ca8ae03c73464ad74915a1331a9b4085e637534daeedf90600090a250565b7f9f2df0fed2c77648de5860a4cc508cd0818c85b8b8a1ab4ceeef8d981c8956a66108ff81611497565b6001600160a01b0383166109555760405162461bcd60e51b815260206004820152601b60248201527f43616e6e6f74206d696e7420746f207a65726f2061646472657373000000000060448201526064016107ac565b61095f8383611807565b826001600160a01b03167f3f2c9d57c068687834f0de942a9babb9e5acab57d516d3480a3c16ee165a42738360405161099a91815260200190565b60405180910390a2505050565b6109b081611811565b60405181815233907ffd38818f5291bf0bb3a2a48aadc06ba8757865d1dabd804585338aab3009dcb69060200160405180910390a250565b6060436109f3610c99565b65ffffffffffff1614610a485760405162461bcd60e51b815260206004820152601d60248201527f4552433230566f7465733a2062726f6b656e20636c6f636b206d6f646500000060448201526064016107ac565b5060408051808201909152601d81527f6d6f64653d626c6f636b6e756d6265722666726f6d3d64656661756c74000000602082015290565b610a8a338261181b565b50565b6001600160a01b0381166000908152600b602052604081205461065690611894565b610ab982826118fd565b816001600160a01b03167ffd38818f5291bf0bb3a2a48aadc06ba8757865d1dabd804585338aab3009dcb682604051610af491815260200190565b60405180910390a25050565b6001600160a01b038116600090815260086020526040812054610656565b7f65d7a28e3265b37a6474929f336521b332c1681b933f6cb9f3376673440d862a610b4881611497565b610b50611912565b60405133907ff017c0de579727a3cd3ee18077ee8b4c43bf21892985952d1d5a0d52f983502d90600090a250565b600060608082808083610bb27f0000000000000000000000000000000000000000000000000000000000000000600661194f565b610bdd7f0000000000000000000000000000000000000000000000000000000000000000600761194f565b60408051600080825260208201909252600f60f81b9b939a50919850469750309650945092509050565b6000610c11610c99565b65ffffffffffff168210610c635760405162461bcd60e51b815260206004820152601960248201527804552433230566f7465733a20667574757265206c6f6f6b757603c1b60448201526064016107ac565b610656600c836116cc565b6000918252600d602090815260408084206001600160a01b0393909316845291905290205460ff1690565b600061075e436119fa565b60606004805461066b90612c59565b6001600160a01b0381166000908152600b60205260408120548015610d22576001600160a01b0383166000908152600b6020526040902080546000198301908110610d0057610d00612ccc565b60009182526020909120015464010000000090046001600160e01b0316610d25565b60005b6001600160e01b03169392505050565b60003381610d43828661107d565b905083811015610da35760405162461bcd60e51b815260206004820152602560248201527f45524332303a2064656372656173656420616c6c6f77616e63652062656c6f77604482015264207a65726f60d81b60648201526084016107ac565b61071f8286868403611144565b6000336106fc8185856112e2565b83421115610e0e5760405162461bcd60e51b815260206004820152601d60248201527f4552433230566f7465733a207369676e6174757265206578706972656400000060448201526064016107ac565b604080517fe48329057bfd03d55e49b547132e39cffd9c1820ad7b9d4c5307691425d15adf60208201526001600160a01b038816918101919091526060810186905260808101859052600090610e8890610e809060a00160405160208183030381529060405280519060200120611a61565b858585611a8e565b9050610e9381611ab6565b8614610ee15760405162461bcd60e51b815260206004820152601960248201527f4552433230566f7465733a20696e76616c6964206e6f6e63650000000000000060448201526064016107ac565b610eeb818861181b565b50505050505050565b83421115610f445760405162461bcd60e51b815260206004820152601d60248201527f45524332305065726d69743a206578706972656420646561646c696e6500000060448201526064016107ac565b60007f6e71edae12b1b97f4d1f60370fef10105fa2faae0126114a169c64845d6126c9888888610f738c611ab6565b6040805160208101969096526001600160a01b0394851690860152929091166060840152608083015260a082015260c0810186905260e0016040516020818303038152906040528051906020012090506000610fce82611a61565b90506000610fde82878787611a8e565b9050896001600160a01b0316816001600160a01b0316146110415760405162461bcd60e51b815260206004820152601e60248201527f45524332305065726d69743a20696e76616c6964207369676e6174757265000060448201526064016107ac565b61104c8a8a8a611144565b50505050505050505050565b6000828152600d602052604090206001015461107381611497565b61074f8383611ade565b6001600160a01b03918216600090815260016020908152604080832093909416825291909152205490565b60408051808201909152600080825260208201526001600160a01b0383166000908152600b60205260409020805463ffffffff84169081106110ec576110ec612ccc565b60009182526020918290206040805180820190915291015463ffffffff8116825264010000000090046001600160e01b0316918101919091529392505050565b60006108638284612ca3565b60006108638284612ce2565b6001600160a01b0383166111a65760405162461bcd60e51b8152602060048201526024808201527f45524332303a20617070726f76652066726f6d20746865207a65726f206164646044820152637265737360e01b60648201526084016107ac565b6001600160a01b0382166112075760405162461bcd60e51b815260206004820152602260248201527f45524332303a20617070726f766520746f20746865207a65726f206164647265604482015261737360f01b60648201526084016107ac565b6001600160a01b0383811660008181526001602090815260408083209487168084529482529182902085905590518481527f8c5be1e5ebec7d5bd14f71427d1e84f3dd0314c0f7b2291e5b200ac8c7c3b925910160405180910390a3505050565b6000611274848461107d565b905060001981146112dc57818110156112cf5760405162461bcd60e51b815260206004820152601d60248201527f45524332303a20696e73756666696369656e7420616c6c6f77616e636500000060448201526064016107ac565b6112dc8484848403611144565b50505050565b6001600160a01b0383166113465760405162461bcd60e51b815260206004820152602560248201527f45524332303a207472616e736665722066726f6d20746865207a65726f206164604482015264647265737360d81b60648201526084016107ac565b6001600160a01b0382166113a85760405162461bcd60e51b815260206004820152602360248201527f45524332303a207472616e7366657220746f20746865207a65726f206164647260448201526265737360e81b60648201526084016107ac565b6113b3838383611b45565b6001600160a01b0383166000908152602081905260409020548181101561142b5760405162461bcd60e51b815260206004820152602660248201527f45524332303a207472616e7366657220616d6f756e7420657863656564732062604482015265616c616e636560d01b60648201526084016107ac565b6001600160a01b03848116600081815260208181526040808320878703905593871680835291849020805487019055925185815290927fddf252ad1be2c89b69c2b068fc378daa952ba7f163c4a11628f55a4df523b3ef910160405180910390a36112dc848484611b50565b610a8a8133611b5b565b6114ab8282610c6e565b6107bf576000828152600d602090815260408083206001600160a01b03851684529091529020805460ff191660011790556114e33390565b6001600160a01b0316816001600160a01b0316837f2f8788117e7eff1d82e926ec794901d17c78024a50270940304540a733656f0d60405160405180910390a45050565b6000306001600160a01b037f00000000000000000000000000000000000000000000000000000000000000001614801561158057507f000000000000000000000000000000000000000000000000000000000000000046145b156115aa57507f000000000000000000000000000000000000000000000000000000000000000090565b61075e604080517f8b73c3c69bb8fe3d512ecc4cf759cc79239f7b179b0ffacaa9a75d522b39400f60208201527f0000000000000000000000000000000000000000000000000000000000000000918101919091527f000000000000000000000000000000000000000000000000000000000000000060608201524660808201523060a082015260009060c00160405160208183030381529060405280519060200120905090565b6001600160a01b03811633146116c25760405162461bcd60e51b815260206004820152602f60248201527f416363657373436f6e74726f6c3a2063616e206f6e6c792072656e6f756e636560448201526e103937b632b9903337b91039b2b63360891b60648201526084016107ac565b6107bf8282611ade565b8154600090818160058111156117265760006116e784611bb4565b6116f19085612ce2565b600088815260209020909150869082015463ffffffff16111561171657809150611724565b611721816001612ca3565b92505b505b8082101561177357600061173a8383611c9c565b600088815260209020909150869082015463ffffffff16111561175f5780915061176d565b61176a816001612ca3565b92505b50611726565b801561179f576000868152602090208101600019015464010000000090046001600160e01b03166117a2565b60005b6001600160e01b03169695505050505050565b6117bd611cb7565b6005805460ff191690557f5db9ee0a495bf2e6ff9c91a7834c1ba4fdd244a5e8aa4e537bd38aeae4b073aa335b6040516001600160a01b03909116815260200160405180910390a1565b6107bf8282611d00565b610a8a3382611d8a565b6001600160a01b038281166000818152600a60208181526040808420805485845282862054949093528787166001600160a01b03198416811790915590519190951694919391928592917f3134e8a2e6d97e929a7e54011ea5485d7d196dd5f0ba4d4ef95803e8e3fc257f9190a46112dc828483611d94565b600063ffffffff8211156118f95760405162461bcd60e51b815260206004820152602660248201527f53616665436173743a2076616c756520646f65736e27742066697420696e203360448201526532206269747360d01b60648201526084016107ac565b5090565b611908823383611268565b6107bf8282611d8a565b61191a611ed1565b6005805460ff191660011790557f62e78cea01bee320cd4e420270b5ea74000d11b0c9f74754ebdbfc544b05a2586117ea3390565b606060ff83146119695761196283611f17565b9050610656565b81805461197590612c59565b80601f01602080910402602001604051908101604052809291908181526020018280546119a190612c59565b80156119ee5780601f106119c3576101008083540402835291602001916119ee565b820191906000526020600020905b8154815290600101906020018083116119d157829003601f168201915b50505050509050610656565b600065ffffffffffff8211156118f95760405162461bcd60e51b815260206004820152602660248201527f53616665436173743a2076616c756520646f65736e27742066697420696e203460448201526538206269747360d01b60648201526084016107ac565b6000610656611a6e611527565b8360405161190160f01b8152600281019290925260228201526042902090565b6000806000611a9f87878787611f56565b91509150611aac8161201a565b5095945050505050565b6001600160a01b03811660009081526008602052604090208054600181018255905b50919050565b611ae88282610c6e565b156107bf576000828152600d602090815260408083206001600160a01b0385168085529252808320805460ff1916905551339285917ff6391f5c32d9c69d2a47ea670b442974b53935d1edc7fd64eb21e047a839171b9190a45050565b61074f838383612164565b61074f8383836121ca565b611b658282610c6e565b6107bf57611b72816121fc565b611b7d83602061220e565b604051602001611b8e929190612cf5565b60408051601f198184030181529082905262461bcd60e51b82526107ac91600401612991565b600081600003611bc657506000919050565b60006001611bd3846123aa565b901c6001901b90506001818481611bec57611bec612d6a565b048201901c90506001818481611c0457611c04612d6a565b048201901c90506001818481611c1c57611c1c612d6a565b048201901c90506001818481611c3457611c34612d6a565b048201901c90506001818481611c4c57611c4c612d6a565b048201901c90506001818481611c6457611c64612d6a565b048201901c90506001818481611c7c57611c7c612d6a565b048201901c905061086381828581611c9657611c96612d6a565b0461243e565b6000611cab6002848418612d80565b61086390848416612ca3565b60055460ff166108735760405162461bcd60e51b815260206004820152601460248201527314185d5cd8589b194e881b9bdd081c185d5cd95960621b60448201526064016107ac565b611d0a8282612454565b6002546001600160e01b031015611d7c5760405162461bcd60e51b815260206004820152603060248201527f4552433230566f7465733a20746f74616c20737570706c79207269736b73206f60448201526f766572666c6f77696e6720766f74657360801b60648201526084016107ac565b6112dc600c61112c836124e1565b6107bf8282612656565b816001600160a01b0316836001600160a01b031614158015611db65750600081115b1561074f576001600160a01b03831615611e44576001600160a01b0383166000908152600b602052604081208190611df190611138856124e1565b91509150846001600160a01b03167fdec2bacdd2f05b59de34da9b523dff8be42e5e38e818c82fdb0bae774387a7248383604051611e39929190918252602082015260400190565b60405180910390a250505b6001600160a01b0382161561074f576001600160a01b0382166000908152600b602052604081208190611e7a9061112c856124e1565b91509150836001600160a01b03167fdec2bacdd2f05b59de34da9b523dff8be42e5e38e818c82fdb0bae774387a7248383604051611ec2929190918252602082015260400190565b60405180910390a25050505050565b60055460ff16156108735760405162461bcd60e51b815260206004820152601060248201526f14185d5cd8589b194e881c185d5cd95960821b60448201526064016107ac565b60606000611f248361266e565b604080516020808252818301909252919250600091906020820181803683375050509182525060208101929092525090565b6000807f7fffffffffffffffffffffffffffffff5d576e7357a4501ddfe92f46681b20a0831115611f8d5750600090506003612011565b6040805160008082526020820180845289905260ff881692820192909252606081018690526080810185905260019060a0016020604051602081039080840390855afa158015611fe1573d6000803e3d6000fd5b5050604051601f1901519150506001600160a01b03811661200a57600060019250925050612011565b9150600090505b94509492505050565b600081600481111561202e5761202e612da2565b036120365750565b600181600481111561204a5761204a612da2565b036120975760405162461bcd60e51b815260206004820152601860248201527f45434453413a20696e76616c6964207369676e6174757265000000000000000060448201526064016107ac565b60028160048111156120ab576120ab612da2565b036120f85760405162461bcd60e51b815260206004820152601f60248201527f45434453413a20696e76616c6964207369676e6174757265206c656e6774680060448201526064016107ac565b600381600481111561210c5761210c612da2565b03610a8a5760405162461bcd60e51b815260206004820152602260248201527f45434453413a20696e76616c6964207369676e6174757265202773272076616c604482015261756560f01b60648201526084016107ac565b60055460ff161561074f5760405162461bcd60e51b815260206004820152602a60248201527f45524332305061757361626c653a20746f6b656e207472616e736665722077686044820152691a5b19481c185d5cd95960b21b60648201526084016107ac565b6001600160a01b038381166000908152600a602052604080822054858416835291205461074f92918216911683611d94565b60606106566001600160a01b03831660145b6060600061221d836002612db8565b612228906002612ca3565b67ffffffffffffffff81111561224057612240612cb6565b6040519080825280601f01601f19166020018201604052801561226a576020820181803683370190505b509050600360fc1b8160008151811061228557612285612ccc565b60200101906001600160f81b031916908160001a905350600f60fb1b816001815181106122b4576122b4612ccc565b60200101906001600160f81b031916908160001a90535060006122d8846002612db8565b6122e3906001612ca3565b90505b600181111561235b576f181899199a1a9b1b9c1cb0b131b232b360811b85600f166010811061231757612317612ccc565b1a60f81b82828151811061232d5761232d612ccc565b60200101906001600160f81b031916908160001a90535060049490941c9361235481612dcf565b90506122e6565b5083156108635760405162461bcd60e51b815260206004820181905260248201527f537472696e67733a20686578206c656e67746820696e73756666696369656e7460448201526064016107ac565b600080608083901c156123bf57608092831c92015b604083901c156123d157604092831c92015b602083901c156123e357602092831c92015b601083901c156123f557601092831c92015b600883901c1561240757600892831c92015b600483901c1561241957600492831c92015b600283901c1561242b57600292831c92015b600183901c156106565760010192915050565b600081831061244d5781610863565b5090919050565b7f00000000000000000000000000000000000000000000000000000000000000008161247f60025490565b6124899190612ca3565b11156124d75760405162461bcd60e51b815260206004820152601960248201527f45524332304361707065643a206361702065786365656465640000000000000060448201526064016107ac565b6107bf8282612696565b8254600090819081811561252e5760008781526020902082016000190160408051808201909152905463ffffffff8116825264010000000090046001600160e01b03166020820152612543565b60408051808201909152600080825260208201525b905080602001516001600160e01b0316935061256384868863ffffffff16565b925060008211801561258d5750612578610c99565b65ffffffffffff16816000015163ffffffff16145b156125d25761259b83612769565b60008881526020902083016000190180546001600160e01b03929092166401000000000263ffffffff90921691909117905561264c565b8660405180604001604052806125f66125e9610c99565b65ffffffffffff16611894565b63ffffffff16815260200161260a86612769565b6001600160e01b0390811690915282546001810184556000938452602093849020835194909301519091166401000000000263ffffffff909316929092179101555b5050935093915050565b61266082826127d2565b6112dc600c611138836124e1565b600060ff8216601f81111561065657604051632cd44ac360e21b815260040160405180910390fd5b6001600160a01b0382166126ec5760405162461bcd60e51b815260206004820152601f60248201527f45524332303a206d696e7420746f20746865207a65726f20616464726573730060448201526064016107ac565b6126f860008383611b45565b806002600082825461270a9190612ca3565b90915550506001600160a01b038216600081815260208181526040808320805486019055518481527fddf252ad1be2c89b69c2b068fc378daa952ba7f163c4a11628f55a4df523b3ef910160405180910390a36107bf60008383611b50565b60006001600160e01b038211156118f95760405162461bcd60e51b815260206004820152602760248201527f53616665436173743a2076616c756520646f65736e27742066697420696e20326044820152663234206269747360c81b60648201526084016107ac565b6001600160a01b0382166128325760405162461bcd60e51b815260206004820152602160248201527f45524332303a206275726e2066726f6d20746865207a65726f206164647265736044820152607360f81b60648201526084016107ac565b61283e82600083611b45565b6001600160a01b038216600090815260208190526040902054818110156128b25760405162461bcd60e51b815260206004820152602260248201527f45524332303a206275726e20616d6f756e7420657863656564732062616c616e604482015261636560f01b60648201526084016107ac565b6001600160a01b0383166000818152602081815260408083208686039055600280548790039055518581529192917fddf252ad1be2c89b69c2b068fc378daa952ba7f163c4a11628f55a4df523b3ef910160405180910390a361074f83600084611b50565b60006020828403121561292957600080fd5b81356001600160e01b03198116811461086357600080fd5b60005b8381101561295c578181015183820152602001612944565b50506000910152565b6000815180845261297d816020860160208601612941565b601f01601f19169290920160200192915050565b6020815260006108636020830184612965565b80356001600160a01b03811681146129bb57600080fd5b919050565b600080604083850312156129d357600080fd5b6129dc836129a4565b946020939093013593505050565b6000806000606084860312156129ff57600080fd5b612a08846129a4565b9250612a16602085016129a4565b9150604084013590509250925092565b600060208284031215612a3857600080fd5b5035919050565b60008060408385031215612a5257600080fd5b82359150612a62602084016129a4565b90509250929050565b600060208284031215612a7d57600080fd5b610863826129a4565b60ff60f81b881681526000602060e081840152612aa660e084018a612965565b8381036040850152612ab8818a612965565b606085018990526001600160a01b038816608086015260a0850187905284810360c0860152855180825283870192509083019060005b81811015612b0a57835183529284019291840191600101612aee565b50909c9b505050505050505050505050565b803560ff811681146129bb57600080fd5b60008060008060008060c08789031215612b4657600080fd5b612b4f876129a4565b95506020870135945060408701359350612b6b60608801612b1c565b92506080870135915060a087013590509295509295509295565b600080600080600080600060e0888a031215612ba057600080fd5b612ba9886129a4565b9650612bb7602089016129a4565b95506040880135945060608801359350612bd360808901612b1c565b925060a0880135915060c0880135905092959891949750929550565b60008060408385031215612c0257600080fd5b612c0b836129a4565b9150612a62602084016129a4565b60008060408385031215612c2c57600080fd5b612c35836129a4565b9150602083013563ffffffff81168114612c4e57600080fd5b809150509250929050565b600181811c90821680612c6d57607f821691505b602082108103611ad857634e487b7160e01b600052602260045260246000fd5b634e487b7160e01b600052601160045260246000fd5b8082018082111561065657610656612c8d565b634e487b7160e01b600052604160045260246000fd5b634e487b7160e01b600052603260045260246000fd5b8181038181111561065657610656612c8d565b7f416363657373436f6e74726f6c3a206163636f756e7420000000000000000000815260008351612d2d816017850160208801612941565b7001034b99036b4b9b9b4b733903937b6329607d1b6017918401918201528351612d5e816028840160208801612941565b01602801949350505050565b634e487b7160e01b600052601260045260246000fd5b600082612d9d57634e487b7160e01b600052601260045260246000fd5b500490565b634e487b7160e01b600052602160045260246000fd5b808202811582820484141761065657610656612c8d565b600081612dde57612dde612c8d565b50600019019056fea264697066735822122047f22005333e076ba5445dd32d5db09c43d83e0ad3ef5db546fa624d2a2e096064736f6c63430008130033dec2bacdd2f05b59de34da9b523dff8be42e5e38e818c82fdb0bae774387a724",
  "linkReferences": {},
  "deployedLinkReferences": {}
}